{
    "contractName": "SecureMessaging",
    "abi": [
        {
            "anonymous": false,
            "inputs": [
                {
                    "indexed": true,
                    "internalType": "bytes32",
                    "name": "conversationId",
                    "type": "bytes32"
                },
                {
                    "indexed": true,
                    "internalType": "address",
                    "name": "sender",
                    "type": "address"
                },
                {
                    "indexed": true,
                    "internalType": "address",
                    "name": "receiver",
                    "type": "address"
                }
            ],
            "name": "ConversationCreated",
            "type": "event"
        },
        {
            "anonymous": false,
            "inputs": [
                {
                    "indexed": true,
                    "internalType": "bytes32",
                    "name": "conversationId",
                    "type": "bytes32"
                },
                {
                    "indexed": true,
                    "internalType": "address",
                    "name": "sender",
                    "type": "address"
                },
                {
                    "indexed": true,
                    "internalType": "address",
                    "name": "receiver",
                    "type": "address"
                }
            ],
            "name": "ConversationUpdated",
            "type": "event"
        },
        {
            "anonymous": false,
            "inputs": [
                {
                    "indexed": true,
                    "internalType": "bytes32",
                    "name": "conversationId",
                    "type": "bytes32"
                },
                {
                    "indexed": true,
                    "internalType": "address",
                    "name": "sender",
                    "type": "address"
                },
                {
                    "indexed": true,
                    "internalType": "address",
                    "name": "receiver",
                    "type": "address"
                },
                {
                    "indexed": false,
                    "internalType": "bytes32",
                    "name": "encryptedMessageIpfsHash",
                    "type": "bytes32"
                }
            ],
            "name": "MessageSent",
            "type": "event"
        },
        {
            "inputs": [
                {
                    "internalType": "bytes32",
                    "name": "startNodeConversationId",
                    "type": "bytes32"
                },
                {
                    "internalType": "uint256",
                    "name": "noOfConversations",
                    "type": "uint256"
                }
            ],
            "name": "listConversations",
            "outputs": [
                {
                    "components": [
                        {
                            "internalType": "bytes32",
                            "name": "conversationId",
                            "type": "bytes32"
                        },
                        {
                            "internalType": "uint256",
                            "name": "latestTimestamp",
                            "type": "uint256"
                        },
                        {
                            "internalType": "bytes32",
                            "name": "prevConversationId",
                            "type": "bytes32"
                        },
                        {
                            "internalType": "bytes32",
                            "name": "nextConversationId",
                            "type": "bytes32"
                        }
                    ],
                    "internalType": "struct SecureMessaging.ConversationNode[]",
                    "name": "",
                    "type": "tuple[]"
                }
            ],
            "stateMutability": "view",
            "type": "function"
        },
        {
            "inputs": [
                {
                    "internalType": "bytes32",
                    "name": "conversationId",
                    "type": "bytes32"
                },
                {
                    "internalType": "uint256",
                    "name": "startIndex",
                    "type": "uint256"
                },
                {
                    "internalType": "uint256",
                    "name": "noOfMessages",
                    "type": "uint256"
                }
            ],
            "name": "listMessages",
            "outputs": [
                {
                    "components": [
                        {
                            "internalType": "bytes32",
                            "name": "encryptedMessageIpfsHash",
                            "type": "bytes32"
                        },
                        {
                            "internalType": "bytes32",
                            "name": "encryptedDecryptionKeyForSender",
                            "type": "bytes32"
                        },
                        {
                            "internalType": "bytes32",
                            "name": "encryptedDecryptionKeyForReceiver",
                            "type": "bytes32"
                        }
                    ],
                    "internalType": "struct SecureMessaging.Message[]",
                    "name": "",
                    "type": "tuple[]"
                }
            ],
            "stateMutability": "view",
            "type": "function"
        },
        {
            "inputs": [],
            "name": "name",
            "outputs": [
                {
                    "internalType": "string",
                    "name": "",
                    "type": "string"
                }
            ],
            "stateMutability": "view",
            "type": "function"
        },
        {
            "inputs": [
                {
                    "internalType": "address",
                    "name": "receiver",
                    "type": "address"
                },
                {
                    "internalType": "bytes32",
                    "name": "encryptedMessageIpfsHash",
                    "type": "bytes32"
                },
                {
                    "internalType": "bytes32",
                    "name": "encryptedDecryptionKeyForSender",
                    "type": "bytes32"
                },
                {
                    "internalType": "bytes32",
                    "name": "encryptedDecryptionKeyForReceiver",
                    "type": "bytes32"
                }
            ],
            "name": "sendMessage",
            "outputs": [],
            "stateMutability": "nonpayable",
            "type": "function"
        },
        {
            "inputs": [],
            "name": "version",
            "outputs": [
                {
                    "internalType": "string",
                    "name": "",
                    "type": "string"
                }
            ],
            "stateMutability": "view",
            "type": "function"
        }
    ],
    "bytecode": "608060405234801561001057600080fd5b50610960806100206000396000f3fe608060405234801561001057600080fd5b50600436106100575760003560e01c806306fdde031461005c57806309371d24146100a057806354fd4d50146100b5578063f31f1d47146100d7578063fb7f4a5c146100f7575b600080fd5b61008a6040518060400160405280600f81526020016e5365637572654d6573736167696e6760881b81525081565b6040516100979190610729565b60405180910390f35b6100b36100ae366004610777565b610117565b005b61008a604051806040016040528060038152602001620312e360ec1b81525081565b6100ea6100e53660046107be565b61030b565b60405161009791906107ea565b61010a610105366004610843565b61046c565b6040516100979190610865565b6040516bffffffffffffffffffffffff1933606090811b8216602084015286901b16603482015260009060480160408051601f198184030181528282528051602091820120600081815260028084528482206060870186528a87528685018a81528787018a8152825460018181018555938652878620995160039091029099019889559051888301555196909101959095553381529382528284208185529091529082205490925090036102695760408051608081018252828152426020808301919091523360008181529182905283822054938301939093526060820152906102029082906105ba565b6001600160a01b03861660009081526020819052604090819020549082015261022b81876105ba565b6040516001600160a01b03871690339084907f7fda31da2ad2c0209e54bfbf26e96b873aea7342ae80868274e534d25f02ddbe90600090a4506102b6565b6102738133610661565b61027d8186610661565b6040516001600160a01b03861690339083907f2f7018420d4d8d797e31251ed6a49e8eb04126d2df47d0249d4840a4d5ff426290600090a45b846001600160a01b0316336001600160a01b0316827fba9e9a3e73bee8d3a364dc49631e50780ca2dc381a14d8c381892bda20d54f26876040516102fc91815260200190565b60405180910390a45050505050565b606082158061032857506000848152600260205260409020548310155b1561034b57600084815260026020526040902054610348906001906108d2565b92505b60008267ffffffffffffffff811115610366576103666108e5565b6040519080825280602002602001820160405280156103b157816020015b60408051606081018252600080825260208083018290529282015282526000199092019101816103845790505b50905060005b83811080156103cf575060006103cd82876108d2565b115b156104635760008681526002602052604090206103ec82876108d2565b815481106103fc576103fc6108fb565b90600052602060002090600302016040518060600160405290816000820154815260200160018201548152602001600282015481525050828281518110610445576104456108fb565b6020026020010181905250808061045b90610911565b9150506103b7565b50949350505050565b60606000831561047c578361048d565b336000908152602081905260409020545b90506000808467ffffffffffffffff8111156104ab576104ab6108e5565b6040519080825280602002602001820160405280156104fd57816020015b6040805160808101825260008082526020808301829052928201819052606082015282526000199092019101816104c95790505b5090505b821580159061050f57508482105b156105af57336000908152600160208181526040808420878552825292839020835160808101855281548152928101549183019190915260028101549282019290925260039091015460608201528151829084908110610571576105716108fb565b602002602001018190525080828151811061058e5761058e6108fb565b602002602001015160400151925081806105a790610911565b925050610501565b925050505b92915050565b6001600160a01b038116600090815260208190526040902054156106085781516001600160a01b03821660009081526001602090815260408083208383528184205484529091529020600301555b6001600160a01b0316600081815260016020818152604080842086518552825280842086518082558388015194820194909455818701516002820155606090960151600390960195909555928252918190529190912055565b6001600160a01b038116600081815260016020818152604080842087855282528084204293019290925592825291819052205482146107255733600090815260016020818152604080842086855282528084206003808201546001600160a01b038816808852958552838720898852808652848820600280820180548b52878b208601949094559485015490840180548a52868a20909501558688528786528488208054895290865293872090910188905582549055849055918352919091528290555b5050565b600060208083528351808285015260005b818110156107565785810183015185820160400152820161073a565b506000604082860101526040601f19601f8301168501019250505092915050565b6000806000806080858703121561078d57600080fd5b84356001600160a01b03811681146107a457600080fd5b966020860135965060408601359560600135945092505050565b6000806000606084860312156107d357600080fd5b505081359360208301359350604090920135919050565b602080825282518282018190526000919060409081850190868401855b828110156108365781518051855286810151878601528501518585015260609093019290850190600101610807565b5091979650505050505050565b6000806040838503121561085657600080fd5b50508035926020909101359150565b602080825282518282018190526000919060409081850190868401855b8281101561083657815180518552868101518786015285810151868601526060908101519085015260809093019290850190600101610882565b634e487b7160e01b600052601160045260246000fd5b818103818111156105b4576105b46108bc565b634e487b7160e01b600052604160045260246000fd5b634e487b7160e01b600052603260045260246000fd5b600060018201610923576109236108bc565b506001019056fea2646970667358221220cdfc8e17fa156955ab1a21f9148d022f03a80ac8b776dd3984224a6fcd33c52664736f6c63430008130033",
    "sourcePath": "/Users/alphaartrem/Desktop/workspace/personal/blockchain/SecureMessagingProject/contracts/SecureMessaging.sol",
    "compiler": {
        "name": "solc",
        "version": "0.8.19+commit.7dd6d404"
    },
    "functionHashes": {
        "listConversations(bytes32,uint256)": "fb7f4a5c",
        "listMessages(bytes32,uint256,uint256)": "f31f1d47",
        "name()": "06fdde03",
        "sendMessage(address,bytes32,bytes32,bytes32)": "09371d24",
        "version()": "54fd4d50"
    },
    "gasEstimates": {
        "creation": {
            "codeDepositCost": "480000",
            "executionCost": "511",
            "totalCost": "480511"
        },
        "external": {
            "listConversations(bytes32,uint256)": "infinite",
            "listMessages(bytes32,uint256,uint256)": "infinite",
            "name()": "infinite",
            "sendMessage(address,bytes32,bytes32,bytes32)": "infinite",
            "version()": "infinite"
        },
        "internal": {
            "addConversationNode(struct SecureMessaging.ConversationNode memory,address)": "infinite",
            "updateConversationNode(bytes32,address)": "153243"
        }
    }
}